{
  "_format": "hh-sol-artifact-1",
  "contractName": "Ownership",
  "sourceName": "contracts/Ownership.sol",
  "abi": [
    {
      "inputs": [],
      "stateMutability": "nonpayable",
      "type": "constructor"
    },
    {
      "inputs": [],
      "name": "manager",
      "outputs": [
        {
          "internalType": "address",
          "name": "",
          "type": "address"
        }
      ],
      "stateMutability": "view",
      "type": "function"
    },
    {
      "inputs": [
        {
          "internalType": "address",
          "name": "verifier",
          "type": "address"
        }
      ],
      "name": "registerVerifier",
      "outputs": [],
      "stateMutability": "nonpayable",
      "type": "function"
    },
    {
      "inputs": [
        {
          "internalType": "string",
          "name": "documentId",
          "type": "string"
        },
        {
          "internalType": "string",
          "name": "documentHash",
          "type": "string"
        },
        {
          "internalType": "string",
          "name": "signatureHash",
          "type": "string"
        }
      ],
      "name": "upload",
      "outputs": [],
      "stateMutability": "nonpayable",
      "type": "function"
    },
    {
      "inputs": [
        {
          "internalType": "uint256",
          "name": "",
          "type": "uint256"
        }
      ],
      "name": "uploads",
      "outputs": [
        {
          "internalType": "address",
          "name": "onwer",
          "type": "address"
        },
        {
          "internalType": "string",
          "name": "documentId",
          "type": "string"
        },
        {
          "internalType": "string",
          "name": "documentHash",
          "type": "string"
        },
        {
          "internalType": "string",
          "name": "signatureHash",
          "type": "string"
        },
        {
          "internalType": "uint256",
          "name": "verificationCount",
          "type": "uint256"
        }
      ],
      "stateMutability": "view",
      "type": "function"
    },
    {
      "inputs": [
        {
          "internalType": "string",
          "name": "documentId",
          "type": "string"
        }
      ],
      "name": "verifyDocument",
      "outputs": [],
      "stateMutability": "nonpayable",
      "type": "function"
    }
  ],
  "bytecode": "0x6080604052600060015534801561001557600080fd5b50336000806101000a81548173ffffffffffffffffffffffffffffffffffffffff021916908373ffffffffffffffffffffffffffffffffffffffff160217905550610c89806100656000396000f3fe608060405234801561001057600080fd5b50600436106100575760003560e01c8063481c6a751461005c5780638dee81921461007a578063beee5eb714610096578063c639e8c5146100b2578063fbfecaa3146100ce575b600080fd5b610064610102565b6040516100719190610983565b60405180910390f35b610094600480360381019061008f9190610824565b610126565b005b6100b060048036038101906100ab91906107e3565b61024d565b005b6100cc60048036038101906100c791906107ba565b6103e4565b005b6100e860048036038101906100e391906108bb565b610497565b6040516100f995949392919061099e565b60405180910390f35b60008054906101000a900473ffffffffffffffffffffffffffffffffffffffff1681565b6001600584604051610138919061096c565b908152602001604051809103902060006101000a81548160ff021916908315150217905550600154600284604051610170919061096c565b9081526020016040518091039020819055506000600360006001600081548092919061019b90610b3e565b9190505581526020019081526020016000209050338160000160006101000a81548173ffffffffffffffffffffffffffffffffffffffff021916908373ffffffffffffffffffffffffffffffffffffffff1602179055508381600101908051906020019061020a929190610685565b5082816002019080519060200190610223929190610685565b508181600301908051906020019061023c929190610685565b506000816004018190555050505050565b600460003373ffffffffffffffffffffffffffffffffffffffff1673ffffffffffffffffffffffffffffffffffffffff16815260200190815260200160002060009054906101000a900460ff166102a357600080fd5b6005816040516102b3919061096c565b908152602001604051809103902060009054906101000a900460ff166102d857600080fd5b60006002826040516102ea919061096c565b908152602001604051809103902054905060006003600083815260200190815260200160002090508060050160003373ffffffffffffffffffffffffffffffffffffffff1673ffffffffffffffffffffffffffffffffffffffff16815260200190815260200160002060009054906101000a900460ff161561036b57600080fd5b60018160050160003373ffffffffffffffffffffffffffffffffffffffff1673ffffffffffffffffffffffffffffffffffffffff16815260200190815260200160002060006101000a81548160ff0219169083151502179055508060040160008154809291906103da90610b3e565b9190505550505050565b60008054906101000a900473ffffffffffffffffffffffffffffffffffffffff1673ffffffffffffffffffffffffffffffffffffffff163373ffffffffffffffffffffffffffffffffffffffff161461043c57600080fd5b6001600460008373ffffffffffffffffffffffffffffffffffffffff1673ffffffffffffffffffffffffffffffffffffffff16815260200190815260200160002060006101000a81548160ff02191690831515021790555050565b60036020528060005260406000206000915090508060000160009054906101000a900473ffffffffffffffffffffffffffffffffffffffff16908060010180546104e090610b0c565b80601f016020809104026020016040519081016040528092919081815260200182805461050c90610b0c565b80156105595780601f1061052e57610100808354040283529160200191610559565b820191906000526020600020905b81548152906001019060200180831161053c57829003601f168201915b50505050509080600201805461056e90610b0c565b80601f016020809104026020016040519081016040528092919081815260200182805461059a90610b0c565b80156105e75780601f106105bc576101008083540402835291602001916105e7565b820191906000526020600020905b8154815290600101906020018083116105ca57829003601f168201915b5050505050908060030180546105fc90610b0c565b80601f016020809104026020016040519081016040528092919081815260200182805461062890610b0c565b80156106755780601f1061064a57610100808354040283529160200191610675565b820191906000526020600020905b81548152906001019060200180831161065857829003601f168201915b5050505050908060040154905085565b82805461069190610b0c565b90600052602060002090601f0160209004810192826106b357600085556106fa565b82601f106106cc57805160ff19168380011785556106fa565b828001600101855582156106fa579182015b828111156106f95782518255916020019190600101906106de565b5b509050610707919061070b565b5090565b5b8082111561072457600081600090555060010161070c565b5090565b600061073b61073684610a37565b610a06565b90508281526020810184848401111561075357600080fd5b61075e848285610aca565b509392505050565b60008135905061077581610c25565b92915050565b600082601f83011261078c57600080fd5b813561079c848260208601610728565b91505092915050565b6000813590506107b481610c3c565b92915050565b6000602082840312156107cc57600080fd5b60006107da84828501610766565b91505092915050565b6000602082840312156107f557600080fd5b600082013567ffffffffffffffff81111561080f57600080fd5b61081b8482850161077b565b91505092915050565b60008060006060848603121561083957600080fd5b600084013567ffffffffffffffff81111561085357600080fd5b61085f8682870161077b565b935050602084013567ffffffffffffffff81111561087c57600080fd5b6108888682870161077b565b925050604084013567ffffffffffffffff8111156108a557600080fd5b6108b18682870161077b565b9150509250925092565b6000602082840312156108cd57600080fd5b60006108db848285016107a5565b91505092915050565b6108ed81610a8e565b82525050565b60006108fe82610a67565b6109088185610a72565b9350610918818560208601610ad9565b61092181610c14565b840191505092915050565b600061093782610a67565b6109418185610a83565b9350610951818560208601610ad9565b80840191505092915050565b61096681610ac0565b82525050565b6000610978828461092c565b915081905092915050565b600060208201905061099860008301846108e4565b92915050565b600060a0820190506109b360008301886108e4565b81810360208301526109c581876108f3565b905081810360408301526109d981866108f3565b905081810360608301526109ed81856108f3565b90506109fc608083018461095d565b9695505050505050565b6000604051905081810181811067ffffffffffffffff82111715610a2d57610a2c610be5565b5b8060405250919050565b600067ffffffffffffffff821115610a5257610a51610be5565b5b601f19601f8301169050602081019050919050565b600081519050919050565b600082825260208201905092915050565b600081905092915050565b6000610a9982610aa0565b9050919050565b600073ffffffffffffffffffffffffffffffffffffffff82169050919050565b6000819050919050565b82818337600083830152505050565b60005b83811015610af7578082015181840152602081019050610adc565b83811115610b06576000848401525b50505050565b60006002820490506001821680610b2457607f821691505b60208210811415610b3857610b37610bb6565b5b50919050565b6000610b4982610ac0565b91507fffffffffffffffffffffffffffffffffffffffffffffffffffffffffffffffff821415610b7c57610b7b610b87565b5b600182019050919050565b7f4e487b7100000000000000000000000000000000000000000000000000000000600052601160045260246000fd5b7f4e487b7100000000000000000000000000000000000000000000000000000000600052602260045260246000fd5b7f4e487b7100000000000000000000000000000000000000000000000000000000600052604160045260246000fd5b6000601f19601f8301169050919050565b610c2e81610a8e565b8114610c3957600080fd5b50565b610c4581610ac0565b8114610c5057600080fd5b5056fea26469706673582212209b5945edc4132626f13247c856827e2d7b11d80da232d1b18c14f6c1bf02899164736f6c63430008000033",
  "linkReferences": {},
  "deployedLinkReferences": {}
}